:100000000C9462000C948A000C948A000C948A0070
:100010000C948A000C948A000C948A000C948A0038
:100020000C948A000C948A000C948A000C948A0028
:100030000C948A000C948A000C948A000C948A0018
:100040000C94F5020C948A000C94C3020C949D024B
:100050000C948A000C948A000C948A000C948A00F8
:100060000C948A000C948A000000000023002600F3
:10007000290000000008000201000003040700003E
:1000800000000000000000000000250028002B00F8
:1000900000000000240027002A00040404040404D3
:1000A0000404020202020202030303030303010227
:1000B00004081020408001020408102001020408F6
:1000C0001020060511241FBECFEFD8E0DEBFCDBF44
:1000D00014E0A0E0B1E0E0E1FDE002C005900D9287
:1000E000A43CB107D9F725E0A4ECB4E001C01D920F
:1000F000AE36B207E1F710E0C2E6D0E004C02197C7
:10010000FE010E945B05C136D107C9F70E943F037B
:100110000C9486060C940000CF93DF9390E0FC01D2
:10012000E255FF4F249186569F4FFC01849188230E
:10013000C1F090E0880F991FFC01E057FF4FC59177
:10014000D491FC01EA57FF4FA591B4919FB7F89461
:100150008881E22FE0958E2388838C91E823EC93AD
:100160009FBFDF91CF910895AF92BF92CF92DF9260
:10017000EF92FF920F931F93CF93DF936C017B015C
:100180008B01040F151FEB015E01AE18BF08C017ED
:10019000D10759F06991D601ED91FC910190F08160
:1001A000E02DC6010995892B79F7C501DF91CF9123
:1001B0001F910F91FF90EF90DF90CF90BF90AF9085
:1001C0000895FC01538D448D252F30E0842F90E05D
:1001D000821B930B541710F0CF9608950197089542
:1001E000FC01918D828D981761F0A28DAE0FBF2F0B
:1001F000B11D5D968C91928D9F5F9F73928F90E061
:1002000008958FEF9FEF0895FC01918D828D9817CF
:1002100031F0828DE80FF11D858D90E008958FEF0C
:100220009FEF0895FC01918D228D892F90E0805CD5
:100230009F4F821B91098F73992708958DEC94E04D
:100240000E94120121E0892B09F420E0822F0895F9
:1002500080E090E0892B29F00E941E0181110C940E
:1002600000000895FC01A48DA80FB92FB11DA35A59
:10027000BF4F2C91848D90E001968F739927848FC6
:10028000A689B7892C93A089B1898C9183708064E9
:100290008C93938D848D981306C00288F389E02D8A
:1002A00080818F7D80830895EF92FF920F931F933B
:1002B000CF93DF93EC0181E0888F9B8D8C8D981319
:1002C0001AC0E889F989808185FF15C09FB7F89425
:1002D000EE89FF896083E889F98980818370806471
:1002E00080839FBF81E090E0DF91CF911F910F91BC
:1002F000FF90EF900895F62E0B8D10E00F5F1F4FCB
:100300000F731127E02E8C8D8E110CC00FB607FCD9
:10031000FACFE889F989808185FFF5CFCE010E9467
:100320003201F1CFEB8DEC0FFD2FF11DE35AFF4FA2
:10033000F0829FB7F8940B8FEA89FB8980818062F5
:10034000CFCFCF93DF93EC01888D8823B9F0AA89B2
:10035000BB89E889F9898C9185FD03C0808186FD80
:100360000DC00FB607FCF7CF8C9185FFF2CF8081CF
:1003700085FFEDCFCE010E943201E9CFDF91CF9111
:10038000089590E0FC01EE58FF4F2491FC01E255E6
:10039000FF4F3491FC01E656FF4FE491EE23C1F18B
:1003A000222339F02330E9F090F4213001F122309A
:1003B00011F1F0E0EE0FFF1FE859FF4FA591B49146
:1003C000EC91E32381E090E029F580E00895273067
:1003D000A9F02830C9F0243061F7809180008F7D2A
:1003E00003C0809180008F7780938000E2CF84B536
:1003F0008F7784BDDECF84B58F7DFBCF8091B00039
:100400008F778093B000D5CF8091B0008F7DF9CFEA
:1004100080E090E008953FB7F8948091C9049091EE
:10042000CA04A091CB04B091CC0426B5A89B05C00A
:100430002F3F19F00196A11DB11D3FBFBA2FA92F63
:10044000982F8827BC01CD01620F711D811D911D60
:1004500042E0660F771F881F991F4A95D1F70895CC
:100460008F929F92AF92BF92CF92DF92EF92FF92C4
:100470004B015C010E940B026B017C010E940B028C
:100480006C197D098E099F09683E734081059105AD
:10049000A8F321E0821A9108A108B10888EEC80EDD
:1004A00083E0D81EE11CF11C81149104A104B10465
:1004B00029F7FF90EF90DF90CF90BF90AF909F9083
:1004C0008F900895FC0101900020E9F73197AF016A
:1004D000481B590BBC018DEC94E00C94B4000C94B7
:1004E0006202CF93DF93D0E0C0E0009719F00E9442
:1004F0006202EC0188EA92E00E9462028C0F9D1F6A
:10050000DF91CF9108950F931F93CF93DF938C01C9
:10051000EB01CB010E946105F801DC01C80FD91F76
:1005200034E22081329623272D93AC17BD07C9F7FB
:10053000DF91CF911F910F9108951F920F920FB6E7
:100540000F9211242F933F934F935F936F937F9359
:100550008F939F93AF93BF93EF93FF938DEC94E0B2
:100560000E943201FF91EF91BF91AF919F918F91C6
:100570007F916F915F914F913F912F910F900FBE9F
:100580000F901F9018951F920F920FB60F92112483
:100590002F938F939F93EF93FF93E091DD04F0915E
:1005A000DE048081E091E304F091E40482FD1BC04D
:1005B00090818091E6048F5F8F732091E70482170A
:1005C00041F0E091E604F0E0E353FB4F958F809318
:1005D000E604FF91EF919F918F912F910F900FBEA5
:1005E0000F901F9018958081F4CF1F920F920FB635
:1005F0000F9211242F933F938F939F93AF93BF93A9
:100600008091C5049091C604A091C704B091C8041C
:100610003091C40423E0230F2D3758F50196A11D16
:10062000B11D2093C4048093C5049093C604A09385
:10063000C704B093C8048091C9049091CA04A091E2
:10064000CB04B091CC040196A11DB11D8093C904C7
:100650009093CA04A093CB04B093CC04BF91AF9104
:100660009F918F913F912F910F900FBE0F901F90F0
:10067000189526E8230F0296A11DB11DD2CF7894BC
:1006800084B5826084BD84B5816084BD85B5826097
:1006900085BD85B5816085BD80916E008160809348
:1006A0006E001092810080918100826080938100B1
:1006B00080918100816080938100809180008160C1
:1006C000809380008091B10084608093B10080911C
:1006D000B00081608093B00080917A008460809344
:1006E0007A0080917A00826080937A0080917A000B
:1006F000816080937A0080917A00806880937A008C
:100700001092C100E091DD04F091DE0482E080836C
:10071000E091D904F091DA041082E091DB04F091C9
:10072000DC048FEC80831092E504E091E104F09109
:10073000E20486E08083E091DF04F091E0048081B0
:1007400080618083E091DF04F091E0048081886023
:100750008083E091DF04F091E004808180688083F1
:10076000E091DF04F091E00480818F7D808382E05E
:100770000E948C0083E00E948C0084E00E948C0028
:1007800085E00E948C0086E00E948C0087E00E9439
:100790008C0088E00E948C0089E00E948C008AE036
:1007A0000E948C003CEB432E32E0532E40E2642E3C
:1007B00043E0742E50E0852E50E0952E8BEA92E0B7
:1007C0000E946F028BEC92E00E946F028DEE92E02D
:1007D0000E946F0280E193E00E946F0284E393E045
:1007E0000E946F0288E593E00E946F028CE793E01D
:1007F0000E946F028FE993E00E946F0281EC93E008
:100800000E946F0281EE93E00E946F0288E194E003
:100810000E946F0284E394E00E946F028AE694E0F3
:100820000E946F0282E894E00E946F0289E994E0DE
:100830000E946F028FEA94E00E946F0288EA92E0C1
:100840000E94620288EA92E00E94620269E370E01C
:100850008EED91E00E948302EC018C01075C1F4F3A
:1008600069918DEC94E00E94540168EC70E080E0A6
:1008700090E00E9430020C171D0791F780E290E093
:100880000E9461058C016C0180E2C80ED11C7801C8
:1008900082E00E94C101EC0164E670E080E090E03B
:1008A0000E943002CD2BA1F383E00E94C1015C01C4
:1008B00084E00E94C101EC0185E00E94C101CC0FDF
:1008C000DD1F880F991F880F991FC82BAC2A86E05F
:1008D0000E94C101A3E0880F991FAA95E1F7A82AF9
:1008E00087E00E94C101B4E0880F991FBA95E1F733
:1008F000A82A88E00E94C101C5E0880F991FCA9507
:10090000E1F7A82A89E00E94C101D6E0880F991F6B
:10091000DA95E1F7A82A8AE00E94C1019695982FFE
:10092000882797958795A82A6A2D8DEC94E00E94D8
:100930005401D701AD927D0160E971E080E090E063
:100940000E943002CE14DF0409F0A2CF88EA92E0C0
:100950000E94620280E490E00E9461059C017C019B
:10096000EC01F0E0E0E0D8014D918D01842F042EE0
:10097000000C990B40FD3DC08E0F9F1FAC01440F32
:10098000551F840F951F880F991FB3010E943305CF
:100990009983888331962296E032F10521F7E8E6C3
:1009A000F2E0205C3F4F90E080E0D7016D917D91B7
:1009B0007D01419151916417750711F081E090E03C
:1009C0002E153F0591F7892BE1F46BE370E088E683
:1009D00091E00E9483020E9471028114910409F443
:1009E000EDCE0E941E01882309F4E8CE0E9400008B
:1009F000E5CE039643E0880F991F4A95E1F7B201CF
:100A0000C5CF64E370E080E091E0E3CFEDECF4E08B
:100A10001382128288EE93E0A0E0B0E08483958395
:100A2000A683B7838AE592E09183808385EC90E08A
:100A30009587848784EC90E09787868780EC90E0A8
:100A4000918B808B81EC90E0938B828B82EC90E099
:100A5000958B848B86EC90E0978B868B118E128E13
:100A6000138E148E089597FB072E16F4009407D06A
:100A700077FD09D00E94470507FC05D03EF490950C
:100A800081959F4F0895709561957F4F0895AA1B9A
:100A9000BB1B51E107C0AA1FBB1FA617B70710F069
:100AA000A61BB70B881F991F5A95A9F7809590959B
:100AB000BC01CD010895EE0FFF1F0590F491E02DCC
:100AC00009940F931F93CF93DF938230910510F415
:100AD00082E090E0E0916C05F0916D0530E020E05F
:100AE000B0E0A0E0309799F42115310509F44AC02F
:100AF000281B390B24303105D8F58A819B8161157B
:100B0000710589F1FB0193838283FE0111C040814D
:100B100051810281138148175907E0F0481759079E
:100B200099F4109761F012960C93129713961C93F8
:100B30003296CF01DF91CF911F910F9108950093CD
:100B40006C0510936D05F4CF2115310551F0421756
:100B5000530738F0A901DB019A01BD01DF01F8015B
:100B6000C1CFEF01F9CF90936D0580936C05CDCF88
:100B7000FE01E20FF31F81939193225031093983D3
:100B80002883D7CF20916A0530916B05232B41F440
:100B9000209152023091530230936B0520936A05E5
:100BA00020915002309151022115310541F42DB7A9
:100BB0003EB74091540250915502241B350BE091F1
:100BC0006A05F0916B05E217F307A0F42E1B3F0BAB
:100BD0002817390778F0AC014E5F5F4F24173507AF
:100BE00048F04E0F5F1F50936B0540936A05819349
:100BF00091939FCFF0E0E0E09CCFCF93DF930097FD
:100C0000E9F0FC01329713821282A0916C05B09139
:100C10006D05ED0130E020E01097A1F420813181D5
:100C2000820F931F20916A0530916B0528173907B1
:100C300009F061C0F0936B05E0936A05DF91CF91F5
:100C40000895EA01CE17DF07E8F54A815B819E012E
:100C500041155105B1F7E901FB83EA8349915991A7
:100C6000C40FD51FEC17FD0761F4808191810296B6
:100C7000840F951FE90199838883828193819B83E7
:100C80008A83F0E0E0E012968D919C911397009793
:100C9000B9F52D913C911197CD010296820F931FCA
:100CA00020916A0530916B052817390739F630977E
:100CB00051F510926D0510926C05B0936B05A093E1
:100CC0006A05BCCFD383C28340815181840F951FB5
:100CD000C817D90761F44E5F5F4F88819981480F2B
:100CE000591F518340838A819B819383828321157D
:100CF000310509F0B0CFF0936D05E0936C059ECF00
:100D0000FD01DC01C0CF13821282D7CFF894FFCF50
:100D100070004C004D00570004004D0057000400C7
:100D20004A004B005000040050004C0041000400F9
:100D300056004D0043004C00500004004F0041009D
:100D40005D000A000A000A00040040004B00040095
:100D50005D004B0051000400560041004500480072
:100D600048005D00040048004B00520041000400B0
:100D7000490041001B001B006B00040076004B0083
:100D8000490041004B000800040076004B00490078
:100D900041004B000800040053004C004100560085
:100DA000410042004B00560041000400450056003F
:100DB0005000040050004C004B005100040076002D
:100DC0004B00490041004B001B000400700045002F
:100DD0004F0041000400450048004800040049005D
:100DE0005D005700410048004200050005002E004C
:100DF00073004100480047004B00490041000400D7
:100E000050004B00040050004C004100040043001F
:100E100045004900410004004B0042000400480026
:100E20004B00520041000800040041004A005000FD
:100E300041005600040050004C00410004004F00E7
:100E400041005D0004004B004200040049005D00C9
:100E500004004C0041004500560050001E000400F4
:100E600000006E058000000000005401B400E100A5
:100E7000A1011201F00004013401AA01D4015002C1
:100E80007401B4008400240154009A02D400EE02DC
:100E900054000603C40284005400F201D400D400BC
:100EA000B4005400D400EE0254001E03D400C2016A
:100EB0004C008400200144010D0A00202020202045
:100EC000202020202E2E2E2E2E20202020202020DC
:100ED000202020202E2E2E2E2E0A002020202C61B5
:100EE0006438505050503838622C20202020202C5C
:100EF000643838505050503862612C0A0020206409
:100F0000385022202020202020225938622C202CEA
:100F100064385022202020202020225938620A00E4
:100F20002064502720202020202020202020202244
:100F300038613822202020202020202020202060FE
:100F400059640A002038282020202020202020203A
:100F5000202020202022202020202020202020208F
:100F60002020202029380A00204938202020202055
:100F70002020202020202020202020202020202071
:100F8000202020202020202038490A0020205962DB
:100F90002C20202020202020202020202020202045
:100FA000202020202020202020202C64500A0020F7
:100FB00020202238612C20202020202020202020CA
:100FC00020202020202020202020202C6138220AD0
:100FD0000020202020202238612C202020202020CA
:100FE00020202020202020202020202C6138220AB0
:100FF0000020202020202020225962612020202053
:101000002020202020202020206164502220202029
:1010100020205468652067616D65206F66206C6FC5
:101020007665203C33200A0020202020202020202C
:101030002060593861202020202020202020613885
:1010400050270A002020202020202020202020605F
:1010500038382C20202020202C3838272020202011
:10106000202020202020556E6C6F636B20746865F3
:10107000206C6F76652121200A002020202020206E
:1010800020202020202020223862202020643822A6
:101090000A00202020202020202020202020202086
:1010A000223862206438220A0020202020202020BC
:1010B000202020202020202060383838270A0020D7
:1010C0002020202020202020202020202020202020
:0410D000220A0000F0
:00000001FF
