xxd ninidibi | head
	00000000: 2066 6f72 6d61 7420 3300 1000 0101 0040   format 3......@

Might be broken sqlite3 file, try repair


53 51 4c 69 74 65 20 66 6f 72 6d 61 74 20 33 00		SQLite format 3.



sqlite3 ninidibi_repair
.tables
	flag    orders
select * from flag;
52
95
95
85
55
48
97
33
77
83
48
110
114
125
97
83
105
97
82
67
53
67
66
89
75
102
98
95
52
108
82
51
87
104
33
70
98
104
102
95
95
95
95
95
80
95
108
123
95
65
98
84
33
115

select * from orders;

12
11
38
25
31
48
51
37
21
14
17
15
53
35
0
19
43
32
2
18
20
6
9
28
30
8
23
1
42
36
16
34
44
50
4
46
49
13
10
22
40
29
45
39
33
47
5
24
26
41
3
52
27

python decode.py
	S4CTF{B4bY___f0r3n5iCS___7AsK_f0R_WaRMUP_blah_blah!!!}